:100000000C94DE000C9424100C94FD0F0C9406014B
:100010000C9406010C9406010C94FF100C944B10E8
:100020000C9406010C9406010C9406010C94060134
:100030000C9406010C9406010C9406010C94060124
:100040000C94B30F0C9406010C94CD100C94A710D3
:100050000C9406010C9406010C9406010C94060104
:100060000C9406010C94060105A84CCDB2D44EB9EF
:100070003836A9020C50B9918688083CA6AAAA2A4B
:10008000BE000000803F4652454552414D3A004473
:10009000454255473A5350495F466C6173685F4922
:1000A0006E69745F4641494C00555054494D453A7C
:1000B00000535953465245513A002053533A0000D9
:1000C000000000240027002A000000000023002672
:1000D00000290052513A454D5054590052513A00AE
:1000E0003A494E563A49442D4F55542D4F462D52BC
:1000F000414E4745003A4D454D46554C4C005D201C
:10010000005B0044454255473A494E534552545FBF
:100110004641494C3A4D454D5F46554C4C0044458F
:100120004255473A70726F63657373436F6D6D61CB
:100130006E645F736B69705F6475706C6963617422
:100140006500454E43525950544B45593A004E456F
:1001500054574F524B49443A00555054494D453A33
:1001600000535953465245513A0046524545524173
:100170004D3A0001020408102040800102040810DA
:100180002001020408102000000000250028002B98
:100190000004040404040404040202020202020330
:1001A0000303030303020000000800020100000330
:1001B00004070000000000000000161111241FBEFB
:1001C000CFEFD8E0DEBFCDBF12E0A0E0B1E0EAECB7
:1001D000F8E302C005900D92A432B107D9F724E0EC
:1001E000A4E2B2E001C01D92A032B207E1F710E034
:1001F000CEEDD0E004C02197FE010E94331CCD3D1E
:10020000D107C9F70E9476110C94631C0C9400006E
:10021000833081F028F4813099F08230A9F008957C
:100220008730A9F08830C9F08430B1F48091800023
:100230008F7D03C0809180008F7780938000089528
:1002400084B58F7784BD089584B58F7DFBCF809171
:10025000B0008F778093B00008958091B0008F7DBB
:10026000F9CFCF93DF93282F30E0F901EA55FE4F05
:100270008491F901ED58FE4FD491F901EF56FE4FEC
:10028000C491CC23A1F081110E940801EC2FF0E071
:10029000EE0FFF1FE753FF4FA591B491EC91ED23B3
:1002A00081E090E009F480E0DF91CF91089580E053
:1002B00090E0FACF1F93CF93DF93282F30E0F9011E
:1002C000EA55FE4F8491F901ED58FE4FD491F901A2
:1002D000EF56FE4FC491CC23A9F0162F81110E9436
:1002E0000801EC2FF0E0EE0FFF1FE957FE4FA5913C
:1002F000B4918FB7F894EC91111108C0D095DE231A
:10030000DC938FBFDF91CF911F910895DE2BF8CF43
:10031000CF93DF9390E0FC01ED58FE4F24918F5670
:100320009E4FFC0184918823C9F090E0880F991FAB
:10033000FC01E154FF4FA591B491FC01E957FE4F38
:10034000C591D49161110DC09FB7F8948C912095FF
:1003500082238C938881282328839FBFDF91CF91AC
:100360000895623051F49FB7F8943C91822F8095A4
:1003700083238C93E8812E2BEFCF8FB7F894EC91E9
:100380002E2B2C938FBFEACFCF93DF93EC0161E04C
:1003900089E00E948801209731F460E089E0DF91D4
:1003A000CF910C945A01CF3FD10511F461E0F6CF03
:1003B000EFEAF1E0E491E33029F140F4E130B1F00B
:1003C000E230D9F0C038D1058CF7E7CFE73021F122
:1003D000E83051F1E430B1F7809180008062809381
:1003E0008000D0938B00C0938A0004C084B58068DD
:1003F00084BDC7BDDF91CF91089584B5806284BD6F
:10040000C8BDF8CF80918000806880938000D09331
:100410008900C0938800EECF8091B00080688093FF
:10042000B000C093B300E6CF8091B00080628093AB
:10043000B000C093B400DECF8E50806480937C0007
:1004400080917A00806480937A0080917A0086FDA2
:10045000FCCF809178009091790008953FB7F8948F
:100460008091880290918902A0918A02B0918B02BA
:1004700026B5A89B05C02F3F19F00196A11DB11DFF
:100480003FBFBA2FA92F982F8827BC01CD01620F3B
:10049000711D811D911D42E0660F771F881F991FF6
:1004A0004A95D1F708958F929F92AF92BF92CF92C3
:1004B000DF92EF92FF926B017C010E942E024B01B2
:1004C0005C01C114D104E104F104B9F00E942E02D0
:1004D000681979098A099B09683E7340810591056D
:1004E00080F321E0C21AD108E108F10888EE880EF5
:1004F00083E0981EA11CB11CE4CFFF90EF90DF9029
:10050000CF90BF90AF909F908F9008952FB7F894A1
:100510006091840270918502809186029091870299
:100520002FBF089581E08093270208950895909148
:100530000D0189130BC0E5EAF1E0E4919FEF909380
:100540000D01E13049F028F0E23061F060E00C94F8
:100550005A0110926E00FACF90916F009D7F909398
:100560006F00F4CF909170009D7F9093700091E0A8
:100570009093B0009091B100987F94609093B100F7
:100580001092B300E3CFDC01ED91FC910190F0817A
:10059000E02D0994AF92BF92CF92DF92EF92FF923B
:1005A0000F931F93CF93DF936C017B018B01040F9B
:1005B000151FEB015E01AE18BF08C017D10759F037
:1005C0006991D601ED91FC910190F081E02DC60179
:1005D0000995892B79F7C501DF91CF911F910F9173
:1005E000FF90EF90DF90CF90BF90AF900895FC0107
:1005F000538D448D252F30E0842F90E0821B930B88
:10060000541710F0CF96089501970895FC01918D2D
:10061000828D981761F0A28DAE0FBF2FB11D5D9630
:100620008C91928D9F5F9F73928F90E008958FEFD2
:100630009FEF0895FC01918D828D981731F0828D86
:10064000E80FF11D858D90E008958FEF9FEF0895DD
:10065000FC01918D228D892F90E0805C9F4F821B41
:1006600091098F739927089584E093E00E942803ED
:1006700021E0892B09F420E0822F089580E090E0AA
:10068000892B29F00E94340381110C9400000895F5
:10069000FC01A48DA80FB92FB11DA35ABF4F2C91F7
:1006A000848D90E001968F739927848FA689B789EE
:1006B0002C93A089B1898C91837080648C93938DE5
:1006C000848D981306C00288F389E02D80818F7D88
:1006D00080830895EF92FF920F931F93CF93DF9340
:1006E000EC0181E0888F9B8D8C8D98131AC0E8896E
:1006F000F989808185FF15C09FB7F894EE89FF893D
:100700006083E889F98980818370806480839FBFDA
:1007100081E090E0DF91CF911F910F91FF90EF90DA
:100720000895F62E0B8D10E00F5F1F4F0F731127EA
:10073000E02E8C8D8E110CC00FB607FCFACFE88925
:10074000F989808185FFF5CFCE010E944803F1CF62
:10075000EB8DEC0FFD2FF11DE35AFF4FF0829FB799
:10076000F8940B8FEA89FB8980818062CFCF0F9349
:100770001F93CF93DF938C01D0E0C0E0F801EC0F22
:10078000FD1F6491662341F084E093E00E946A03B8
:10079000892B11F02196F2CFCE01DF91CF911F91DD
:1007A0000F910895CF93DF93EC01888D8823B9F0E2
:1007B000AA89BB89E889F9898C9185FD03C080816C
:1007C00086FD0DC00FB607FCF7CF8C9185FFF2CFE9
:1007D000808185FFEDCFCE010E944803E9CFDF91F4
:1007E000CF910895FC01A681B7819D012F5F3F4FF6
:1007F0008481958140855185840F951F281739077D
:1008000050F4378326836C930680F781E02D1082A5
:1008100081E090E0089590E080E00895CF93DF9329
:10082000EB01DC01ED91FC910480F581E02D09954F
:10083000882379F080913E0290913F02C817D90732
:1008400011F0CD2B29F481E090912802911101C083
:1008500080E0DF91CF9108954F925F926F927F92E7
:100860009F92AF92BF92CF92DF92EF92FF920F933F
:100870001F93CF93DF9300D000D000D0CDB7DEB769
:100880009E838D836B015A01122FF02E912C2E2DF9
:1008900030E050E040E029833A834B835C838FE172
:1008A000E82EAD81BE81ED91FC9111970190F08110
:1008B000E02D01E0212FA501B601CD0109950E948F
:1008C00086022B013C010E94860264197509860983
:1008D000970929813A814B815C81621773078407EC
:1008E0009507E8F4B6018D819E810E940E0488234D
:1008F00051F326960FB6F894DEBF0FBECDBFDF9141
:10090000CF911F910F91FF90EF90DF90CF90BF900C
:10091000AF909F907F906F905F904F900895AD81C2
:10092000BE8152968C9152978F3140F453969C9190
:100930005397890F803240F452968C939394F91414
:1009400008F0AFCF80E0D5CFED81FE81E28AF6CF0F
:100950004F925F926F927F929F92AF92BF92CF928F
:10096000DF92EF92FF920F931F93CF93DF9300D00C
:1009700000D000D0CDB7DEB79E838D836B015A01C6
:10098000122FF02E912C2E2D30E050E040E02983E4
:100990003A834B835C83AD81BE81ED91FC911197CD
:1009A0000190F081E02D01E0212FA501B601CD01DC
:1009B00009950E9486022B013C010E94860264195F
:1009C00075098609970929813A814B815C816217F3
:1009D000730784079507E8F4B6018D819E810E9414
:1009E0000E04882351F326960FB6F894DEBF0FBE8F
:1009F000CDBFDF91CF911F910F91FF90EF90DF90CE
:100A0000CF90BF90AF909F907F906F905F904F90EE
:100A100008959394F91408F0BECF80E0E4CF0895D0
:100A2000CF93CFB7F89480912502811127C0EBE9CD
:100A3000F1E08491EDE7F1E09491E82FF0E0EE0F22
:100A4000FF1FE154FF4FA591B491EC91E92321F4EC
:100A500061E08AE00E945A0161E08AE00E94880118
:100A60008CB580618CBD8CB580648CBD61E08DE0FF
:100A70000E94880161E08BE00E948801809125023C
:100A80008F5F80932502CFBFCF9108958FB7F894E1
:100A9000809124028FBF0895CF93DF93EC0161E032
:100AA0008A810E945A018C858CBD8D858DBDDF9118
:100AB000CF910895CF93DF93C3E1D4E061E08881C3
:100AC0000E945A018B818CBD8C818DBDDF91CF91AD
:100AD00008958EBD00000DB407FEFDCF8EB50895BC
:100AE0001F93CF93DF93607260932A0220912802B4
:100AF000222329F120912A02222309F110917E025A
:100B00001123E9F0EC0180E00E94690590E09195E5
:100B1000819591099D8B8C8B115010937E022889B1
:100B200039892115310559F08217930774F48A89A0
:100B30008F3128F49B89890F803228F48A8BDF91CA
:100B4000CF911F9108958FE1F9CF28173907BCF78E
:100B50008A898823A1F38150F1CF0F931F93CF93FC
:100B6000DF93EC01062F142FE881F9810688F789BD
:100B7000E02D0995802F80680E946905812F0E94D1
:100B80006905E881F981008CF18DE02DCE01DF91BE
:100B9000CF911F910F9109941F93CF93DF93EC0195
:100BA000162F45E561114DE56AE5CE010E94AD05C0
:100BB00040E711114CE76CE5CE01DF91CF911F9119
:100BC0000C94AD051F93CF93DF93EC01162FE881B2
:100BD000F9810688F789E02D0995812F0E94690522
:100BE00080E00E946905182FE881F981008CF18D61
:100BF000E02DCE010995812FDF91CF911F910895AE
:100C00000F931F93CF93DF9367E08CEF93E00E94E5
:100C1000E205C82F68E08CEF93E00E94E205D82F30
:100C200069E08CEF93E00E94E2054C2F50E070E009
:100C300060E0BA0155274427480F511D611D711D01
:100C40008D2F90E0982F88278A019B01080F191F8C
:100C5000211D311DC901B8010E94BA1920E034E2FA
:100C600044E752E40E941B1A0E944D1BDF91CF9172
:100C70001F910F9108957F928F929F92AF92BF9292
:100C8000CF92DF92EF92FF920F931F93CF93DF9358
:100C9000EC014B01F42ED52E722EE881F9810288E9
:100CA000F389E02D61E0099567E2CE010E94E2053B
:100CB00087FFFACF10E0E1101C2D170D1E3308F04E
:100CC0001DE3E881F9810688F789E02DCE010995B9
:100CD00080E80E94690583E0810F0E946905882DE4
:100CE0000E9469058D810E9469058FEF8816910425
:100CF00091F188F1C40126E0969587952A95E1F750
:100D00008C702D813E812F3F310521F018F0932FFB
:100D10009370892BEE2009F190E0C11090E2806879
:100D2000892B0E946905CC2049F0C501B7FE03C09C
:100D30009195819591090E94690511500F2D8F2C75
:100D40009D2C882D801B8117A0F4F40181914F0107
:100D50000E946905F6CF80E0D4CF002339F02889BE
:100D6000398990E4232B09F090E6892B0E946905CC
:100D7000E5CFE881F981008CF18DE02DCE01099558
:100D8000E881F9810288F389E02D64E0CE010995BC
:100D900068E2CE010E94E20583FFFACFE881F98183
:100DA0000288F389E02D61E0CE01DF91CF911F91A0
:100DB0000F91FF90EF90DF90CF90BF90AF909F90FA
:100DC0008F907F900994AF92BF92CF92EF920F9342
:100DD000B12CA12CC12C0E943B060F91EF90CF901B
:100DE000BF90AF900895CF93DF93EC0169874AE1FC
:100DF00061114FE063E1CE010E94AD058985882332
:100E000069F061E1CE010E94E2058F71482F4066D2
:100E100061E1CE01DF91CF910C94AD05488540682A
:100E2000F7CFCF93DF93EC0110927E0210923F0236
:100E300010923E0210923C0210923B021092260247
:100E400010923D02109228021092820210928102AA
:100E500068E20E94E20582FF0AC06DE3CE010E94B3
:100E6000E205482F44606DE3CE010E94AD0540E4E9
:100E700065E2CE010E94AD05E881F9810288F3891F
:100E8000E02D63E0CE01DF91CF91099410922A0208
:100E90000C941107CF93DF93EC01603208F06FE1FF
:100EA00068878985882311F06695688761E1CE019E
:100EB0000E94E205807E4885482B61E1CE01DF91EA
:100EC000CF910C94AD051F93CF93DF932091A10395
:100ED000261761F0162FEC01623009F445C050F47A
:100EE000662309F453C0613009F449C0DF91CF9102
:100EF0001F910895633021F16430C1F761E00E94D1
:100F0000E205837E482F4C6061E0CE010E94AD0572
:100F10008985882341F0E881F9810488F589E02DED
:100F200061E0CE0109958091A103811106C067E2BD
:100F3000CE010E94E20587FFF6CF1093A103D6CF22
:100F400061E00E94E205837E482F406161E0CE01AE
:100F50000E94AD058985882331F3E881F9810488F1
:100F6000F589E02D60E0DDCF61E00E94E205837E3F
:100F7000482F486061E0CE010E94AD05D4CF61E00A
:100F80000E94E205837E482F4460F4CF61E00E9416
:100F9000E205482F437EEECF1F93CF93DF9320913E
:100FA000A1032617A9F0162FEC010E946307143045
:100FB00079F488899989892B59F0E881F98102842B
:100FC000F385E02D6A89CE01DF91CF911F910994BD
:100FD000DF91CF911F910895AF92BF92CF92DF9290
:100FE000EF92FF920F931F93CF93DF93EC016B016E
:100FF000B42EA52EF22E102FE881F9810288F389F4
:10100000E02D61E0099567E2CE010E94E20587FFCD
:10101000FACF0F2D0E3308F00DE3E1103DC0112380
:10102000E9F110E48FEFC816D10449F040F0C60191
:1010300026E0969587952A95E1F78C70182B8D817F
:101040009E818F3F910521F018F0892F8370182B16
:10105000E881F9810688F789E02DCE01099580E8BD
:101060000E94690583E0800F0E9469058C2D0E9413
:1010700069058D810E946905812F0E9469051B2DDC
:10108000EB2CFA2C8E2D811B801750F4F7018191E7
:101090007F010E946905F6CF10E8C4CF10E0C2CFEF
:1010A000E881F981008CF18DE02DCE010995E88170
:1010B000F9810288F389E02D64E0CE01099568E2A8
:1010C000CE010E94E20583FFFACFE881F981028810
:1010D000F389E02D61E0CE01DF91CF911F910F9157
:1010E000FF90EF90DF90CF90BF90AF9009948CBDB0
:1010F0009DBD0895CF93DF938CB5C3E1D4E08B837E
:101100008DB58C838D819E810E94770860E08881F7
:10111000DF91CF910C945A01CF93DF93C82F6623B0
:1011200031F060E086E00E948C080E945A050E941F
:101130007A0885E00E94690580E00E946905D82F41
:101140000E945A05D0FDF3CF0E947A088C2FDF91C0
:10115000CF910C946905CF93DF93EC018CB58C870C
:101160008DB58D878E859F850E94770860E08A8186
:10117000DF91CF910C945A01EF92FF920F931F933E
:10118000CF93DF938C01EB0161E00E94CC072097A5
:1011900041F18881882329F1C8010E94AB088EEBB8
:1011A0000E9469057E0180E1E80EF11C89910E9490
:1011B0006905EC16FD06D1F7C8010E944C05C1E097
:1011C0006DE3C8010E94E2058E7F482F4C2B6DE332
:1011D000C801DF91CF911F910F91FF90EF900C9478
:1011E000AD05C0E0EDCF0E94860220ED37E040E083
:1011F00050E00E94111CA901330F660B770B809100
:10120000000190910101A0910201B09103014817E2
:1012100059076A077B0791F1409300015093010140
:10122000609302017093030185E10E941C02BC01DE
:10123000990F880B990B0E94BC1923EA36E043E50D
:101240005BE30E941B1A2EEA37E441EC5FE30E9445
:101250001B1A6093090170930A0180930B0190930C
:101260000C0120E030E040E650E40E94B519881FF0
:101270008827881F80932F0281E0089580E00895D9
:10128000CF93C82F61E084E00E945A016C2F87E061
:101290000E945A0165E070E080E090E00E945302F5
:1012A00060E084E00E945A0165E070E080E090E038
:1012B000CF910C94530284E10E941C0221E0813200
:1012C00093400CF420E0822F0895089590E080E090
:1012D0000895CF93DF93D82F80910D01853099F039
:1012E0008F3FD1F16D2F70E090E080E00E945302BB
:1012F00085E00E9497026AE070E080E090E0DF9174
:10130000CF910C945302E5EAF1E0C491C7FDEACF16
:1013100061E085E00E948801CC2309F48CC0C230D2
:1013200009F0A0C08091B100887F82608093B100F5
:101330008DEE8093B3008FEF9FEFDC018093F80276
:101340009093F902A093FA02B093FB02809170008F
:10135000826080937000C6CF85E080930D01E5EA3E
:10136000F1E0C491CF3F09F4BDCFC13021F150F07D
:10137000C23009F43EC0C7FDB5CF61E085E00E94F0
:101380008801CDCF14BC15BC84B5826084BD85B501
:10139000816085BDE6E9F1E0E491F0E0EE0FFF1F2A
:1013A000E957FE4F85919491E8E7F1E0E491E093ED
:1013B000F702C0E0ADCF10928000109281008091C2
:1013C000810088608093810080918100816080939A
:1013D0008100E6E9F1E0E491F0E0EE0FFF1FE9574C
:1013E000FE4F85919491E8E7F1E0E491E093F602F5
:1013F0008FCF1092B0001092B1008091B000826047
:101400008093B0008091B10081608093B100E6E9E3
:10141000F1E0E491F0E0EE0FFF1FE957FE4F8591F8
:1014200094919093F5028093F402E8E7F1E0E4915F
:10143000E093F3026DCF85B5887F826085BD8DEE28
:1014400087BD8FEF9FEFDC01809300039093010332
:10145000A0930203B093030380916E008260809397
:101460006E0040CFC130E9F480918100887F8160B7
:10147000809381008FE697E09093890080938800A5
:101480008FEF9FEFDC018093FC029093FD02A0930D
:10149000FE02B093FF0280916F00826080936F0024
:1014A00021CFC23021F0C1111DCF8FE6C9CF8FE609
:1014B00040CFCF93DF932091A103233021F080E030
:1014C000DF91CF910895209126022111F8CFEC01F0
:1014D00064E20E94E20590E09195819591098C3437
:1014E0009F4F6CF7E881F9810288F389E02D61E074
:1014F000CE01099581E0E4CF4F925F926F927F9287
:101500008F929F92AF92BF92CF92DF92EF92FF9213
:101510000F931F93CF93DF93EC012B01142F1092A5
:101520003D0260903E0270903F0280908102909058
:10153000820280912A0201E0811101C000E06DE386
:10154000CE010E94E205482F44606DE3CE010E9467
:10155000AD050E9486026B017C01CE010E94590AF2
:10156000811113C00E9486026C197D098E099F09A2
:10157000683E73408105910540F4E881F98104805B
:10158000F581E02DCE010995E8CF70923F0260927F
:101590003E025401C02EEE24E39400E0212FA2016C
:1015A000B301CE010E943B0690928202809281029A
:1015B000DF91CF911F910F91FF90EF90DF90CF902F
:1015C000BF90AF909F908F907F906F905F904F9063
:1015D00008954F925F926F927F928F929F92AF92F7
:1015E000BF92CF92DF92EF920F931F93CF93DF932F
:1015F000EC014B01142F10923D02C0903E02D0909E
:101600003F02A0908102B09082026DE30E94E20549
:10161000482F44606DE3CE010E94AD050E94860212
:101620002B013C01CE010E94590A811113C00E9476
:1016300086026419750986099709683E7340810519
:10164000910540F4E881F9810480F581E02DCE0117
:101650000995E8CFD0923F02C0923E02E881F9811D
:101660000684F785E02DEE24E39400E0212FA40109
:10167000B601CE010995B0928202A0928102DF915B
:10168000CF911F910F91EF90DF90CF90BF90AF90CF
:101690009F908F907F906F905F904F9008954F92A2
:1016A0005F926F927F92AF92BF92CF92DF92EF9252
:1016B0000F931F93CF93DF93EC016B015A01122F0D
:1016C0006DE30E94E205482F44606DE3CE010E9465
:1016D000AD050E9486022B013C01CE010E94590AF1
:1016E000811113C00E948602641975098609970941
:1016F000683E73408105910540F4E881F9810480DA
:10170000F581E02DCE010995E8CFE881F9810684C5
:10171000F785E02DE12C212FA501B601CE01099519
:10172000DF91CF911F910F91EF90DF90CF90BF90FD
:10173000AF907F906F905F904F900895EF92FF92DF
:101740000F931F93CF93DF93EC018091270288239F
:1017500009F468C08091A10310922702833009F038
:10176000AEC068E2CE010E94E20582FFA8C0E88117
:10177000F9810288F389E02D61E0CE010995E881C5
:10178000F9810688F789E02DCE01099580E00E9455
:10179000690580E00E946905082F182F833408F03E
:1017A00012E41093260280E00E946905E82E80E092
:1017B0000E946905F82E80E00E946905282F30E01C
:1017C000A90166E0440F551F6A95E1F7442753705D
:1017D0004E2950933C0240933B02322F222722276E
:1017E00033702F2930933F0220933E029F81E8817E
:1017F000F981911107C02D813E814217530711F0E5
:10180000452B11F4033040F510922602008CF18D27
:10181000E02DCE010995E881F9810088F189E02D5C
:10182000CE0109958091A103833009F057C08091C2
:101830002602882309F459C0E881F9810288F389D6
:10184000E02D61E0CE01099581E0DF91CF911F91FC
:101850000F91FF90EF900895135010937E02982FF0
:10186000907890932802982F907490933D0204846E
:10187000F585E02D682FCE01099510E0E0917E02FC
:101880001E1750F480E00E946905E12FF0E0E05C53
:10189000FD4F80831F5FF2CFF0E0E05CFD4F1082D0
:1018A000E881F981008CF18DE02DCE010995E88168
:1018B000F9810288F389E02D63E0CE01099564E2A5
:1018C000CE010E94E20590E0919581959109959550
:1018D00087959093820280938102A4CFE881F98159
:1018E0000088F189E02DCE01099580E0AECFFB01A3
:1018F00001900020E9F73197AF01461B570BDC013F
:10190000ED91FC910280F381E02D099460E571E096
:1019100084E093E00C94770CCF93DF930E94B7039D
:10192000EC010E94860C8C0F9D1FDF91CF910895D2
:101930008F929F92AF92BF92EF92FF920F931F935D
:10194000CF93DF93CDB7DEB7A1970FB6F894DEBF84
:101950000FBECDBF7C01FA01CB0119A2223008F4E1
:101960002AE08E010F5D1F4F822E912CB12CA12CED
:10197000BF01A50194010E94111CF901CA016A303E
:101980000CF5605DD8016E938D01232B242B252B44
:1019900079F790E080E0109721F0BD01C7010E9427
:1019A000770CA1960FB6F894DEBF0FBECDBFDF91C6
:1019B000CF911F910F91FF90EF90BF90AF909F90AC
:1019C0008F900895695CDECFCF92DF92EF92FF9205
:1019D000CF93DF936C01990FEE08FF08F7FE1BC051
:1019E0006DE284E093E00E94C302EC014427552796
:1019F000BA014C195D096E097F092AE084E093E081
:101A00000E94980C8C0F9D1FDF91CF91FF90EF905B
:101A1000DF90CF9008952AE0B701A60184E093E01B
:101A2000DF91CF91FF90EF90DF90CF900C94980CC6
:101A30006115710511F00C94770C90E080E0089529
:101A4000AF92BF92CF92DF92EF92FF920F931F93CC
:101A5000CF93DF93CDB7DEB7ED970FB6F894DEBF27
:101A60000FBECDBF60EE71E08CE892E00E9481195C
:101A70007C0163E571E08CE892E00E94391C892BBF
:101A8000F1F48AE691E00E94B70320911C043091A2
:101A90001D042115310511F420E234E0CE01019638
:101AA000821B930B0E94E40C6AE384E093E00E94A3
:101AB000C30280E098E00E94E40C0E94860C6BE573
:101AC00071E08CE892E00E94391C892B09F0EEC08D
:101AD00060EE71E090E080E00E9481197C0111E0ED
:101AE000892B91F51091F002112341F10091F1023F
:101AF0001091F2020115110509F4D8C08CED90E0A7
:101B00000E94B703F801419151916F0170E060E0CC
:101B10002AE084E093E00E94980C6AE384E093E07A
:101B20000E94C302B60184E093E00E94180D0E9457
:101B3000860CF801FF9600811181DCCF83ED90E0E7
:101B40000E94B7030E94860C6EE571E08CE892E07B
:101B50000E94391C892B79F481E691E00E94B70339
:101B60000E940006AB01BC012AE084E093E00E94E1
:101B7000980C0E94860C66E671E08CE892E00E9468
:101B8000391C892B79F489E591E00E94B7030E9402
:101B90008602AB01BC012AE084E093E00E94980C2D
:101BA0000E94860C6DE671E08CE892E00E94391C80
:101BB000892B51F48EE491E00E94B70388EC90E009
:101BC0000E94E40C0E94860C67E771E08CE892E0CA
:101BD0000E94391C892B19F485E00E9469096CE781
:101BE00071E08CE892E00E94391C892B19F48AE09C
:101BF0000E94690962E871E08CE892E00E94391C59
:101C0000892B61F482E491E00E94B7036DE871E0F2
:101C100084E093E00E94180D0E94860CE114F10408
:101C200009F40AC1B701CE0101966C010E94421C61
:101C3000112309F445C06EE971E0C6010E94391C08
:101C4000892BF1F58091F1029091F20210E0209140
:101C5000F1023091F202009791F028173907D9F775
:101C6000F901FF96E080F1801F5FE114F10401F5B6
:101C7000C9010E94DA181092F2021092F10263EA8E
:101C800071E084E093E00E94180D412F50E070E075
:101C900060E02AE084E093E00E94980C0E94860CA9
:101CA0008091F002811B8093F002C6C010E04CCFFF
:101CB000F092F202E092F1020E94DA18C701C7CF57
:101CC000C6010E9463195C0162E571E090E080E06A
:101CD0000E948119BC01C6010E94421C898188238F
:101CE00009F4AAC0C50102978E3F934008F020C1B5
:101CF0006EE971E0C6010E94491CC816D90609F0B8
:101D000080C08D818A3309F052C0F6010190002015
:101D1000E9F73197EC19FD09CC24C394369708F004
:101D2000C12C0091F1021091F202D12C0115110584
:101D300049F1F80180819181A816B90609F05CC0CB
:101D4000C1100AC0BE016A5F7F4FC80102960E949F
:101D5000391C892B09F050C08091F1029091F20258
:101D60000817190781F5F801FF96E080F180D394F8
:101D7000E114F104F9F4C8010E94DA181092F20299
:101D80001092F10263EA71E084E093E00E94180D82
:101D90004D2D50E070E060E02AE084E093E00E9486
:101DA000980C0E94860C8091F0028D197CCFCC2477
:101DB000C394B7CFF092F202E092F102C8010E9400
:101DC000DA188701B3CF7C01FFE3EF0EF11CF701B6
:101DD000808191810097B1F208171907A1F7F801E6
:101DE000FF9680819181F70191838083C8010E94D1
:101DF000DA18D394F70102C0F801FF96E080F18071
:101E0000E0CF61E089E00E945A01F60101900020D4
:101E1000E9F731979F012C193D098EE1E82E02E088
:101E2000A601B5018CEF93E00E942C0460E08823AA
:101E3000A1F089E00E945A01ED960FB6F894DEBF3A
:101E40000FBECDBFDF91CF911F910F91FF90EF900B
:101E5000DF90CF90BF90AF90089589E00E945A0123
:101E6000112351F30091F1021091F2027801E11473
:101E7000F104B9F0F70180819181A816B90661F4E7
:101E8000B601C70102960E94391C892B29F48EE104
:101E900091E00E948C0CD0CFF701FF96E080F1809A
:101EA000E6CF81E490E00E943E187C01009701F5A6
:101EB00083E091E00E948C0C81E091E00E94B703E6
:101EC000A50170E060E02AE084E093E00E94980CB5
:101ED0008EEF90E00E94B703B60184E093E00E9489
:101EE000180D85EF90E00E94B7030E94860CA4CFE6
:101EF000FC01A192B192CF01B6010E94421CF701F0
:101F0000FF96118210820115110541F4F092F20240
:101F1000E092F1028091F0028F5FC5CEF801FF964A
:101F20000081118101151105C9F7F182E082F2CF1C
:101F30006BE584E093E00E94C302A50170E060E0DD
:101F40002AE084E093E00E94980C6AEB71E084E060
:101F500093E00E94180DB60184E093E00E94180DF2
:101F600080EE90E0C0CF1F920F920FB60F92112417
:101F70002F933F938F939F93AF93BF93809184024E
:101F800090918502A0918602B091870230918302E0
:101F900023E0230F2D3758F50196A11DB11D209385
:101FA00083028093840290938502A0938602B0936B
:101FB00087028091880290918902A0918A02B09153
:101FC0008B020196A11DB11D809388029093890216
:101FD000A0938A02B0938B02BF91AF919F918F9192
:101FE0003F912F910F900FBE0F901F90189526E8EC
:101FF000230F0296A11DB11DD2CF1F920F920FB6D3
:102000000F9211242F933F934F935F936F937F937E
:102010008F939F93AF93BF93EF93FF93E09106014C
:10202000F09107010995FF91EF91BF91AF919F91B9
:102030008F917F916F915F914F913F912F910F9071
:102040000FBE0F901F9018951F920F920FB60F9210
:1020500011242F933F934F935F936F937F938F93AD
:102060009F93AF93BF93EF93FF93E0910401F0919F
:1020700005010995FF91EF91BF91AF919F918F91CC
:102080007F916F915F914F913F912F910F900FBE74
:102090000F901F9018951F920F920FB60F92112458
:1020A0002F933F934F935F936F937F938F939F9360
:1020B000AF93BF93EF93FF938091F8029091F90251
:1020C000A091FA02B091FB02892B8A2B8B2BD1F1C4
:1020D0009091F302E091F402F091F502808189275A
:1020E00080838091F8029091F902A091FA02B09158
:1020F000FB02181619061A061B069CF48091F802BA
:102100009091F902A091FA02B091FB020197A10906
:10211000B1098093F8029093F902A093FA02B09368
:10212000FB02FF91EF91BF91AF919F918F917F91B2
:102130006F915F914F913F912F910F900FBE0F9034
:102140001F90189580910D010E949702EACF1F926F
:102150000F920FB60F9211242F933F934F935F93DB
:102160006F937F938F939F93AF93BF93EF93FF935F
:1021700084E093E00E944803FF91EF91BF91AF91FB
:102180009F918F917F916F915F914F913F912F918F
:102190000F900FBE0F901F9018951F920F920FB6C1
:1021A0000F9211242F938F939F93EF93FF93E091BE
:1021B0001403F09115038081E0911A03F0911B0341
:1021C00082FD1BC0908180911D038F5F8F732091D2
:1021D0001E03821741F0E0911D03F0E0EC5FFC4F1D
:1021E000958F80931D03FF91EF919F918F912F9178
:1021F0000F900FBE0F901F9018958081F4CF1F9203
:102200000F920FB60F9211248F930FB6F894A895E2
:1022100080916000886180936000109260000FBE22
:102220008F910F900FBE0F901F901895E4E0F3E090
:102230001382128288EE93E0A0E0B0E0848395835D
:10224000A683B78388E191E09183808385EC90E059
:102250009587848784EC90E09787868780EC90E070
:10226000918B808B81EC90E0938B828B82EC90E061
:10227000958B848B86EC90E0978B868B118E128EDB
:10228000138E148EE3E1F4E080E58583168298E0F6
:10229000908320E33FEE32832183ECEFF3E08687E7
:1022A00017868AE0828382E0838381E08093A103A2
:1022B00017828FE180871186138612868AE291E069
:1022C00091838083E2EFF3E01382128288E491E04D
:1022D00091838083A2EAB3E0B583A48380E590E094
:1022E00091878087B783A6831C920895CF93DF934D
:1022F000CDB7DEB7AE970FB6F894DEBF0FBECDBF39
:10230000789484B5826084BD84B5816084BD85B5D0
:10231000826085BD85B5816085BD80916E008160DC
:1023200080936E0010928100809181008260809382
:102330008100809181008160809381008091800084
:102340008160809380008091B10084608093B100AF
:102350008091B00081608093B00080917A008460A9
:1023600080937A0080917A00826080937A008091D5
:102370007A00816080937A0080917A0080688093EF
:102380007A001092C10084E10E94690962E370E062
:1023900080E090E00E94530284E10E94690962E3B8
:1023A00070E080E090E00E94530284E10E9469099D
:1023B00062E080E10E94880160E084E10E9488017F
:1023C00061E081E10E94880161E089E00E9488016A
:1023D00061E086E00E94880161E084E00E9488015B
:1023E00060E084E00E945A0161E087E00E94880179
:1023F00062E082E10E94880162E083E10E9488013C
:1024000060E085E10E94880160E081E10E945A015C
:10241000E0911403F091150382E08083E0911003B2
:10242000F09111031082E0911203F091130380E107
:10243000808310921C03E0911803F091190386E049
:102440008083E0911603F09117038081806180837F
:10245000E0911603F0911703808188608083E091FA
:102460001603F0911703808180688083E091160342
:10247000F091170380818F7D808361E089E00E9465
:10248000880161E089E00E945A0110920D041092C7
:102490000C04109211041092100410922A028FE181
:1024A00080930E0481E080930F048091FF038230BB
:1024B00009F4BAC0833009F0B9C081E08093000408
:1024C000FE0133968CE2DF011D928A95E9F781E0E7
:1024D000898384E08A8322E02B8393E09D832E838B
:1024E0008F8380E4888725E029879A8796E09B87F9
:1024F00093E39C8797E09D8728E02F8729E0298B2D
:1025000029E12B8B22E42C8B35E23D8B8E8B36E23E
:102510003F8B988F98E2998F90E19A8F99E29B8FE9
:102520009CED9C8F9EE29D8F98E89E8F9FE29F8FEF
:102530009DE298A390E399A337E33BA330E93CA342
:1025400038E33DA32EA32CE32FA32FE828A72DE3E8
:1025500029A722E12AA72FE62BA79CA79FEF9DA7DB
:102560009CE69E87888B88EC8AA361E08091FE03BD
:102570000E945A0161E08091FE030E9488018091CF
:10258000060490910704892B31F489E292E090933C
:102590000704809306040E94100580E580930A04D6
:1025A00081E080930B040E9486024B015C014AEAA1
:1025B0006FE28CEF93E00E94AD056FE28CEF93E049
:1025C0000E94E2058A3A59F00E9486026819790948
:1025D0008A099B09623371058105910540F30E94C8
:1025E00086024B015C0145E56FE28CEF93E00E94AF
:1025F000AD056FE28CEF93E00E94E2058535C1F4F2
:10260000B12C8E010F5F1F4FEB2DF0E0EE0FFF1F7F
:10261000E00FF11F60816F3FB9F041818CEF93E0D3
:102620000E94AD05B394F0CF80E048CF8FEF46CF46
:102630000E948602681979098A099B09623371052B
:102640008105910580F2DCCF70E060E08CEF93E0D3
:102650000E94BC08609105048CEF93E00E94F30691
:1026600061E08CEF93E00E94CC070E9486024B0150
:102670005C0167E28CEF93E00E94E20587FD0BC0EE
:102680000E948602681979098A099B0962337105DB
:102690008105910570F30E948602681979098A09FB
:1026A0009B096233710581059105E8F4809100046E
:1026B000823098F4E82FF0E0EE0FFF1FEC5FFE4F42
:1026C00022E932E031832083813009F476C18091A0
:1026D0006900836080936900E89A81E090E09093BC
:1026E0000204809301046DE871E08CEF93E00E9496
:1026F000BC0861E08CEF93E00E94F3060E94860C18
:102700006DEB71E084E093E00E94180D0E94860C4E
:1027100081EB90E00E94B7030E940006AB01BC0170
:102720002AE084E093E00E94980C0E94860C89EADB
:1027300090E00E94B7030E948602AB01BC012AE030
:1027400084E093E00E94980C0E94860C8CB58093E4
:1027500016048DB58093170461E0809113040E94E4
:1027600088010E94100580E58093180410921904D6
:102770000E945A050E947A088BEA0E9469050E940D
:102780005A058091140490911504892B09F41CC1F9
:102790000E947A088FE90E94690580E00E9469051D
:1027A000A82EB12CBA2CAA2480E00E946905A82A80
:1027B0000E945A0580911404909115048A159B0576
:1027C00009F402C18FE890E00E948C0C0E94F3088B
:1027D00086E890E00E94B70380911C0490911D044C
:1027E000009711F480E294E04801881A990A092CB4
:1027F000000CAA08BB082AE0B501A401B7FE0DC071
:102800006DE284E093E00E94C30244275527BA0199
:10281000481959096A097B092AE084E093E00E947B
:10282000980C0E94860C60E089E00E945A019BEAA5
:10283000292E94E0392E80E10E943101182F0E9448
:1028400086024B015C018092320290923302A09288
:102850003402B092350260E081E10E945A01009199
:1028600031020111BBC080913002882381F02AE936
:1028700039E949E850E46091090170910A018091B9
:102880000B0190910C010E947C1B87FFF1C080918D
:1028900008011817B1F080912B0290912C02A091A1
:1028A0002D02B0912E02A5019401281B390B4A0B71
:1028B0005B0BDA01C901893C9105A105B10508F05E
:1028C00095C00E9486020091360210913702209135
:1028D000380230913902601B710B820B930B683CFC
:1028E00071058105910520F182E10E943101892B5A
:1028F00069F40E94860260933602709337028093D7
:1029000038029093390283E00E94690983E10E94B2
:102910003101892B69F40E9486026093360270931C
:102920003702809338029093390283E00E9469094C
:1029300084E093E00E94280318161906B4F484E09A
:1029400093E00E9406038A3009F4A7C28D3069F033
:1029500090913A02E92FF0E0E457FD4F9C3308F0E4
:10296000B8C280839F5F90933A028CEF93E00E94FD
:102970009E0B882309F467C361E089E00E945A0135
:1029800080918102909182029093800280937F02D5
:1029900090917E02992309F4E3C2E0E4F2E089E039
:1029A00030E2891708F099C221852A3011F02D30C4
:1029B00009F431878F5F3196F4CF809169008C6084
:1029C00080936900E99A89CE61E081E00E948C08D9
:1029D00080E00E9469050E945A05F8CE013009F096
:1029E00056CF80912F02882309F451CF109308010C
:1029F00080922B0290922C02A0922D02B0922E0275
:102A0000013009F02FC380912F02882309F433C3CA
:102A100060E08CEF93E00E94CC070E9486024B019D
:102A20005C018092320290923302A0923402B09202
:102A3000350200912F0201111DC0809131028130B9
:102A4000C9F40E948602681979098A099B09643FC2
:102A500071408105910570F46AE070E080E090E0DB
:102A60000E94530280E10E943101892B11F329CF8A
:102A700011E00DCF61E089E00E945A0161E086E03B
:102A80000E945A010111A6C080913102813009F0E3
:102A9000A6C00E948602681979098A099B09603DCF
:102AA00077408105910508F095C080E10E943101D1
:102AB000892B51F30E945B09082F882309F401CF69
:102AC00061E081E10E945A0164EF71E080E090E0F2
:102AD0000E94530260E081E10E945A010E94860236
:102AE0004B015C018092320290923302A092340238
:102AF000B092350210E00E948602681979098A09AD
:102B00009B0960367A4E8105910508F0DACE60E0C7
:102B100089E00E945A0160E086E00E945A0164E662
:102B200070E080E090E00E94530261E089E00E9442
:102B30005A0161E086E00E945A0164E670E080E09C
:102B400090E00E94530260E089E00E945A0160E038
:102B500086E00E945A0164E670E080E090E00E9406
:102B6000530261E089E00E945A0161E086E00E9420
:102B70005A0164E670E080E090E00E94530260E059
:102B800089E00E945A0160E086E00E945A0164E6F2
:102B900070E080E090E00E94530261E089E00E94D2
:102BA0005A0161E086E00E945A0164EF71E080E022
:102BB00090E00E9453020E945B09882349F00E9422
:102BC0005B09882309F497CF112309F494CF79CEB8
:102BD000102F91CF0E945B09182F811155C0809151
:102BE0003102813009F051C10E945B09811144C159
:102BF0000E9486024B015C01809232029092330265
:102C0000A0923402B09235020E9486022B013C0150
:102C100080E10E943101892B09F02EC10E948602B9
:102C2000641975098609970965367105810591054D
:102C3000D0F00E948602681979098A099B0924E666
:102C400030E040E050E00E94111C220F331F220FA1
:102C5000331F8FEF90E0821B930B0E94C4010E94F0
:102C600086022B013C010E948602681979098A09B3
:102C70009B096D3775418105910550F21092310223
:102C800080E00E944009F3C0002319F081E08093A6
:102C9000300261E081E10E945A010E9486024B01EC
:102CA0005C018092320290923302A0923402B09280
:102CB000350260E089E00E945A0160E086E00E94EF
:102CC0005A010E948602681979098A099B096036AF
:102CD0007A4E8105910508F0B8C026E53EE049EC42
:102CE00050E4C701B6010E947C1B18161CF4C12CCD
:102CF000D12C760125E738EC4DEC5BE3C701B6013A
:102D00000E94DA1A6B017C010E94811B20E030E0F6
:102D10004FEF52E40E941B1A20E030E04FEF52E4E4
:102D20000E94DA1A0E94461BCB010E94C4018BE666
:102D300097E10197F1F70E948602681979098A09DB
:102D40009B096D3775418105910530F480E10E9442
:102D50003101892B09F010E00E9486026819790977
:102D60008A099B096C3775418105910510F0111195
:102D70005FC00E948602681979098A099B09613738
:102D800077418105910508F49CCF0E945B09811170
:102D900098CF1092310260E089E00E945A0160E011
:102DA00086E00E945A010E9486024B015C018092DB
:102DB000320290923302A0923402B09235020E9405
:102DC0008602681979098A099B096439714181056C
:102DD0009105C0F526E53EE049EC50E4C701B60197
:102DE0000E947C1B18161CF4C12CD12C760125E7FF
:102DF00038EC4DEC5BE3C701B6010E94DA1A6B01B7
:102E00007C010E94811B20E030E04FEF52E40E94E1
:102E10001B1A20E030E04FEF52E40E94DA1A0E94C1
:102E2000461BCB010E94C401C1010197F1F7C7CF36
:102E30001092310260E089E00E945A0160E086E071
:102E40000E945A0180E00E94400980913102813045
:102E500051F480E10E943101892B29F41092310252
:102E600080E00E94400960E081E10E945A01809167
:102E70003102813009F0F9C060E089E00E945A0116
:102E800061E086E00E945A011CCD8111EEC081E014
:102E90008093310210923002F4CEE0913A02EE2398
:102EA00009F463CDF0E0E457FD4F10826AEC71E065
:102EB00084E093E00E94180D6CE872E084E093E0F7
:102EC0000E94770C0E94860C0E94200D10923A02FC
:102ED0004CCD108262EE71E0EBCFE091F603F09101
:102EE000F703F093F903E093F8038091FA039091CC
:102EF000FB03892B09F0108262E571E082EF93E019
:102F00000E94180D6BE582EF93E00E94C30240918E
:102F10003E0250913F0270E060E02AE082EF93E0D1
:102F20000E94980C6AEB71E082EF93E00E94180D0A
:102F300060E472E082EF93E00E94180D62EA73E0B1
:102F400084E093E00E94180D8AEB90E00E94B703A2
:102F500080917F02909180020E94E40C0E94860C76
:102F600080913D02882309F46AC0209101043091C8
:102F7000020480913B0290913C022817390709F026
:102F80005EC00091F1021091F202E091F603F0911F
:102F9000F703F093F903E093F8038091FA0390911B
:102FA000FB03892B09F0108262E571E082EF93E068
:102FB0000E94180D2091F8033091F9038091F603D7
:102FC0009091F703A901481B590B0115110559F1FF
:102FD000D801ED91FC9160913E0270913F02E6179D
:102FE000F707E1F45801B2E0AB0EB11CF501019016
:102FF0000020E9F74A195B094E0F5F1F4F31510559
:1030000068F42817390729F060E282EF93E00E9404
:10301000C302B50182EF93E00E94180DF801FF96FC
:1030200000811181C7CF62EA73E02817390719F4CC
:1030300040E062E571E08CEF93E00E947C0A60E082
:1030400089E00E945A010E94F30820E030E0232B1F
:1030500009F4F1CB0E943403882309F4ECCB0E94DD
:103060000000E9CB112309F4D3CC60E089E00E9491
:103070005A0160E006CF1111FFCECACC0F931F9307
:10308000CF93DF938230910510F482E090E0E091DD
:103090001E04F0911F0430E020E0B0E0A0E0309783
:1030A00099F42115310509F44AC0281B390B243045
:1030B0003105D8F58A819B816115710589F1FB0184
:1030C00093838283FE0111C040815181028113816B
:1030D00048175907E0F04817590799F4109761F01D
:1030E00012960C93129713961C933296CF01DF9190
:1030F000CF911F910F91089500931E0410931F0408
:10310000F4CF2115310551F04217530738F0A901CA
:10311000DB019A01BD01DF01F801C1CFEF01F9CF59
:1031200090931F0480931E04CDCFFE01E20FF31F86
:10313000819391932250310939832883D7CF2091ED
:103140001C0430911D04232B41F420911001309177
:10315000110130931D0420931C0420910E01309125
:103160000F012115310541F42DB73EB740911201F1
:1031700050911301241B350BE0911C04F0911D04A8
:10318000E217F307A0F42E1B3F0B2817390778F03E
:10319000AC014E5F5F4F2417350748F04E0F5F1F9D
:1031A00050931D0440931C04819391939FCFF0E0B2
:1031B000E0E09CCFCF93DF930097E9F0FC013297DA
:1031C00013821282A0911E04B0911F04ED0130E021
:1031D00020E01097A1F420813181820F931F20916C
:1031E0001C0430911D042817390709F061C0F093C1
:1031F0001D04E0931C04DF91CF910895EA01CE17DE
:10320000DF07E8F54A815B819E0141155105B1F761
:10321000E901FB83EA8349915991C40FD51FEC174B
:10322000FD0761F4808191810296840F951FE90169
:1032300099838883828193819B838A83F0E0E0E095
:1032400012968D919C9113970097B9F52D913C9111
:103250001197CD010296820F931F20911C0430918B
:103260001D042817390739F6309751F510921F04BD
:1032700010921E04B0931D04A0931C04BCCFD383F2
:10328000C28340815181840F951FC817D90761F40B
:103290004E5F5F4F88819981480F591F518340834A
:1032A0008A819B81938382832115310509F0B0CFF8
:1032B000F0931F04E0931E049ECFFD01DC01C0CFFC
:1032C00013821282D7CFFC0188279927E894219195
:1032D0002032E9F3293010F02E30C8F32B3241F0C0
:1032E0002D3239F4689404C00E94AD19820F911DEB
:1032F000219120532A30C0F31EF4909581959F4F61
:1033000008954AE154E00E9486190895FA01A191B6
:10331000B081009719F41097E1F0CD01DC01CD01E7
:103320000D90002011F4C00113C0FB012191222354
:1033300019F02015D9F7F3CFFB012191201519F4CD
:103340001E92119606C02223C1F70D900020A1F70E
:10335000D001FA01A193B08308957AE0979F902D50
:10336000879F802D910D112408950E94F71908F46C
:1033700081E00895E89409C097FB3EF4909580950C
:10338000709561957F4F8F4F9F4F9923A9F0F92F2B
:1033900096E9BB279395F695879577956795B795A9
:1033A000F111F8CFFAF4BB0F11F460FF1BC06F5F8F
:1033B0007F4F8F4F9F4F16C0882311F096E911C0A1
:1033C000772321F09EE8872F762F05C0662371F0C2
:1033D00096E8862F70E060E02AF09A95660F771FD6
:1033E000881FDAF7880F9695879597F90895990FB2
:1033F0000008550FAA0BE0E8FEEF16161706E807BF
:10340000F907C0F012161306E407F50798F0621BDF
:10341000730B840B950B39F40A2661F0232B242BB4
:10342000252B21F408950A2609F4A140A6958FEFD3
:10343000811D811D08950E942E1A0C949F1A0E94CE
:10344000911A38F00E94981A20F0952311F00C94EC
:10345000881A0C948E1A11240C94D31A0E94B01A54
:1034600070F3959FC1F3950F50E0551F629FF001D7
:10347000729FBB27F00DB11D639FAA27F00DB11DF0
:10348000AA1F649F6627B00DA11D661F829F222779
:10349000B00DA11D621F739FB00DA11D621F839F00
:1034A000A00D611D221F749F3327A00D611D231FD6
:1034B000849F600D211D822F762F6A2F11249F5724
:1034C00050409AF0F1F088234AF0EE0FFF1FBB1F27
:1034D000661F771F881F91505040A9F79E3F5105E6
:1034E00080F00C94881A0C94D31A5F3FE4F3983E52
:1034F000D4F3869577956795B795F795E7959F5F90
:10350000C1F7FE2B880F911D9695879597F9089521
:1035100097F99F6780E870E060E008959FEF80EC86
:10352000089500240A941616170618060906089529
:1035300000240A9412161306140605060895092E8F
:103540000394000C11F4882352F0BB0F40F4BF2BFE
:1035500011F460FF04C06F5F7F4F8F4F9F4F08953E
:1035600057FD9058440F551F59F05F3F71F0479534
:10357000880F97FB991F61F09F3F79F08795089519
:10358000121613061406551FF2CF4695F1DF08C038
:10359000161617061806991FF1CF86957105610555
:1035A00008940895E894BB2766277727CB0197F9FD
:1035B00008955058BB27AA270E94F11A0C949F1A0D
:1035C0000E94911A38F00E94981A20F039F49F3F17
:1035D00019F426F40C948E1A0EF4E095E7FB0C9483
:1035E000881AE92F0E94B01A58F3BA1762077307B6
:1035F0008407950720F079F4A6F50C94D21A0EF4FE
:10360000E0950B2EBA2FA02D0B01B90190010C01F2
:10361000CA01A0011124FF27591B99F0593F50F40A
:10362000503E68F11A16F040A22F232F342F442762
:10363000585FF3CF469537952795A795F04053955A
:10364000C9F77EF41F16BA0B620B730B840BBAF02A
:103650009150A1F0FF0FBB1F661F771F881FC2F795
:103660000EC0BA0F621F731F841F48F487957795A9
:103670006795B795F7959E3F08F0B0CF9395880F63
:1036800008F09927EE0F9795879508950E944D1B96
:103690006894B1110C94D31A08950E94B81A88F056
:1036A0009F5798F0B92F9927B751B0F0E1F0660F06
:1036B000771F881F991F1AF0BA95C9F714C0B13047
:1036C00091F00E94D21AB1E008950C94D21A672F9B
:1036D000782F8827B85F39F0B93FCCF38695779576
:1036E0006795B395D9F73EF490958095709561955F
:1036F0007F4F8F4F9F4F08950E94F71908F48FEF67
:1037000008959F930E948B1B0F9007FCEE5F0C9413
:10371000B41B0C948E1A0E94B81AD8F3E894E0E017
:10372000BB279F57F0F02AED3FE049EC06C0EE0FB3
:10373000BB0F661F771F881F28F0B23A6207730716
:10374000840728F0B25A620B730B840BE3959A95A9
:1037500072F7803830F49A95BB0F661F771F881F69
:10376000D2F790480C94CA1BEF93E0FF07C0A2EA7F
:103770002AED3FE049EC5FEB0E94F11A0E949F1A8C
:103780000F90039401FC9058E8E6F0E00C94D61BEF
:103790009F3F31F0915020F4879577956795B795C5
:1037A000880F911D9695879597F908959F938F930C
:1037B0007F936F93FF93EF939B01AC010E941B1AC1
:1037C000EF91FF910E94EA1B2F913F914F915F91E2
:1037D0000C941B1ADF93CF931F930F93FF92EF92DA
:1037E000DF927B018C01689406C0DA2EEF010E9403
:1037F0002E1AFE01E894A591259135914591559198
:10380000A6F3EF010E94F11AFE019701A801DA94D4
:1038100069F7DF90EF90FF900F911F91CF91DF91AB
:103820000895A1E21A2EAA1BBB1BFD010DC0AA1F01
:10383000BB1FEE1FFF1FA217B307E407F50720F019
:10384000A21BB30BE40BF50B661F771F881F991F94
:103850001A9469F760957095809590959B01AC01DD
:10386000BD01CF010895EE0FFF1F0590F491E02DEB
:103870000994FB01DC018D91019080190110D9F3AD
:10388000990B0895FB01DC0101900D920020E1F7F6
:103890000895FB0151915523A9F0BF01DC014D9121
:1038A00045174111E1F759F4CD010190002049F08D
:1038B0004D9140154111C9F3FB014111EFCF81E05A
:0A38C00090E001970895F894FFCFFF
:1038CA00FFFFFFFF96029602010000A040FF0000E2
:1038DA0020048000000000006A03CA02F702D20333
:1038EA00280306031A03000000004F0B2C049E0B4A
:1038FA007C0AF3064A077005E3064607CC07CC059F
:10390A00AB084C0500000000F203CA02660965090B
:10391A000D0A004652454552414D00525100535935
:10392A00534652455100555054494D45004E455451
:10393A00574F524B49440042454550004245455075
:10394A003200454E43525950544B45590073616DEC
:10395A00706C65456E63727970744B657900564F69
:10396A0049440044454255473A564F494445445F05
:10397A00636F6D6D616E64733A005D200047415458
:10398A004557415953544152540044454255473AC8
:10399A0068616E646C6553657269616C44617461D7
:1039AA003A0044454255473A4D41585F42554646CA
:1039BA005F434841525320697320657863656564A3
:1039CA006564202D20617474656D7074696E67205A
:1039DA00746F20616464202864656661756C74295B
:0439EA003A2000007F
:00000001FF
